:020000040800F2
:1000000070060020C1010008AF1A0008531600084E
:10001000AD1A0008650400088B1E000800000000EF
:10002000000000000000000000000000891B000824
:100030006704000800000000D11A00084B1C0008EB
:10004000DB010008DB010008DB010008DB01000820
:10005000DB010008DB010008DB010008DB01000810
:10006000DB010008DB010008DB010008DB01000800
:10007000DB010008DB010008DB010008DB010008F0
:10008000DB010008DB010008DB010008DB010008E0
:10009000DB010008DB010008DB010008DB010008D0
:1000A000DB010008DB010008DB010008DB010008C0
:1000B000DB010008551D0008DB010008DB0100081A
:1000C000DB010008DB010008DB010008DB010008A0
:1000D000DB010008DB010008DB010008DB01000890
:1000E00069040008DB010008DB010008DB010008EF
:1000F000DB010008DB010008DB010008DB01000870
:10010000DB010008DB010008DB010008DB0100085F
:10011000DB010008DB010008DB010008DB0100084F
:10012000DB010008DB010008DB010008DB0100083F
:10013000DB010008DB010008DB010008DB0100082F
:10014000DB010008DB010008DB010008DB0100081F
:10015000DB010008DB010008DB010008DB0100080F
:10016000DB010008DB010008DB010008DB010008FF
:10017000DB010008DB010008DB01000800000000D3
:10018000DB010008DB010008DB010008DB010008DF
:10019000DB010008DB010008DB010008DB010008CF
:1001A000DB010008DB010008DB010008DFF80CD0F0
:1001B00000F046F900480047AD1E00087006002018
:1001C0000648804706480047FEE7FEE7FEE7FEE7F1
:1001D000FEE7FEE7FEE7FEE7FEE7FEE7011D00089B
:1001E000AD0100082DE9F05F0546002092469B46D0
:1001F00088460646814640241BE02846414647463D
:10020000224600F0AFF853465A46C01A914110D327
:1002100011461846224600F096F82D1A67EB0108A1
:100220004F4622460120002100F08DF817EB00090F
:100230004E41201EA4F10104DFDC484631462A4627
:100240004346BDE8F09F2DE9F04D81EA030404F038
:10025000004B21F0004514464FF0000A23F0004106
:1002600050EA050220D054EA01021DD0C5F30A5716
:100270000246C5F31303C1F31300C1F30A5640F459
:10028000801543F48013A7EB0608101BD64608F22E
:10029000FD3873EB050002D308F1010801E0921864
:1002A0005B41B8F1000F03DA00200146BDE8F08D94
:1002B00000204FF48011064684460EE0171B73EBB6
:1002C000050705D3121B63EB050306434CEA010C3B
:1002D00049084FEA300092185B4150EA0107EDD11E
:1002E00052EA030012D082EA040083EA05010843BF
:1002F00005D0101BAB4106D20122002306E00022EC
:100300004FF0004302E06FF0010253101AEB0600B9
:100310004CEB085110EB0A0041EB0B01BDE8F04D2E
:1003200000F030B80EB5C10F80EAE0700844CA078B
:10033000002140F233438DE80E000A460B4600F0E0
:1003400030F803B000BD202A04DB203A00FA02F1A5
:10035000002070479140C2F1200320FA03F31943B3
:1003600090407047202A04DB203A21FA02F0002155
:10037000704721FA02F3D040C2F1200291400843B5
:100380001946704710B5141E73F1000408DA401CBA
:1003900041F1000192185B411A4301D120F00100A4
:1003A00010BD2DE9F04D92469B4611B1B1FA81F294
:1003B00002E0B0FA80F220329046FFF7C4FF044614
:1003C0000F4640EA0A0041EA0B0153465A460843E9
:1003D00013D0114653EA010019D0C8F1400250462B
:1003E000FFF7C0FF05460E46504659464246FFF706
:1003F000AAFF084305D0012004E020463946BDE8A5
:10040000F08D0020054346EAE0762C4337430A98F6
:100410006305E40AA0EB08000022FD0A44EA475401
:100420000A3002D500200146E9E7010510196941AB
:10043000DDE9084500196941BDE8F04DA2E700007B
:10044000064C074D06E0E06840F0010394E8070021
:1004500098471034AC42F6D3FFF7ACFE1C1F0008DF
:100460003C1F0008FEE7704710B54FF4806000F0B5
:1004700065F8BDE810404FF4004000F05FB80000A0
:1004800070B504790023012C09D0012404710225E0
:1004900045710568AE6846F00106AE6007E00220CF
:1004A00070BD00BF066851F8235035605B1C934255
:1004B000F8D34471002101710068006870BD10B567
:1004C000040002D0607910B106E0012010BD0020C8
:1004D0002071204600F006F8022060710120607152
:1004E000002010BD08B500680649884208D10648BA
:1004F000016841F480510160006800F48050009070
:1005000008BD0000003002403038024010B5B0F5A0
:10051000806F0DD1074801F087FB064801F036FBDC
:10052000002805D001F0B0F903480168491C0160BA
:1005300010BD00002000002000000020044910B57C
:100540000A68024202D00860FFF7E0FF10BD000019
:10055000143C01402DE9F84FDFF890B100224FF034
:1005600001084FF0030A4FF00F090BF1040E00BF12
:100570000B6808FA02F42340A3426ED14D68022DA5
:1005800001D0122D0ED1D50800EB850CDCF82050DF
:100590005607F70E09FA07F6B5430E69BE402E431B
:1005A000CCF82060066855000F790AFA05FC07F0C0
:1005B000030726EA0C06AF40374307604E68012E5A
:1005C00005D0022E03D0112E01D0122E0ED1876835
:1005D000CE6827EA0C07AE403E4386604668A643D5
:1005E0000C79C4F30014944034434460C4688E68AA
:1005F00024EA0C04AE402643C6604C68E4006FD584
:100600003B4C256845F480452560246822F00305AD
:1006100004F480440094374C2E19D6F80848950706
:100620002F0F09FA07F5AC43334DA84201D100253D
:100630002EE0324DA84201D1012529E0304DA842DB
:1006400001D1022524E02F4DA84201D103251FE04E
:100650002D4DA84202D104251AE041E02B4DA842BD
:1006600001D1052514E02A4DA84201D106250FE04D
:10067000284DA84201D107250AE0274DA84201D103
:10068000082505E0254DA84201D1092500E00A25ED
:10069000BD402543C6F80858DBF800405D464E686B
:1006A0009C43F60300D51C432C60DEF800407546E1
:1006B0004E689C43B60300D51C432C600B4D083597
:1006C0002C684E689C43F60200D51C432C60074DF5
:1006D0000C352C684E689C43B60200D51C432C6038
:1006E000521C102AFFF444AFBDE8F88F003C0140D3
:1006F0004438024000300140000002400004024043
:1007000000080240000C02400010024000140240A9
:1007100000180240001C0240002002400024024059
:100720000AB1816170470904FBE700000148806855
:1007300070470000100000200248816802781144D0
:1007400081607047100000200B4810B5016841F42B
:1007500000710160016841F480610160016841F449
:1007600080710160032000F081F8002000F006F89D
:1007700000F024F8002010BD003C024070B50D4D83
:1007800004464FF47A712878B1FBF0F00A49096801
:10079000B1FBF0F000F0FAFC48B9102C07D20022AF
:1007A0002146501E00F042F800206C6070BD012010
:1007B00070BD0000100000200C00002010B50520C6
:1007C00000F054F8002211466FF00B0000F02EF8F4
:1007D000002211466FF00A0000F028F800221146AE
:1007E0006FF0090000F022F800221146501F00F0BF
:1007F0001DF800221146101F00F018F800221146C3
:10080000901E00F013F80022BDE810401146501E63
:1008100000F00CB800F01F02012191404009800057
:1008200000F1E020C0F8001170470000F0B40E4B5A
:100830001B680C46C3F30223C3F10705042D00D93E
:100840000425191D072901D2002300E0DB1E012623
:1008500006FA05F1491E214099409E40761E164039
:100860003143F0BC01F024B90CED00E0064900F082
:10087000070208684FF6FF03184040EA0220034AC7
:1008800010430860704700000CED00E00000FA051E
:100890002DE9F8431748016841F080510160006874
:1008A000154F00F08050012600903E64FFF73EFF98
:1008B00005464FF47A78114C05E000BFFFF736FF8C
:1008C000401B40450DD86068C003F7D57E64FFF734
:1008D0002DFF0546464607E0FFF728FF401BB042C4
:1008E00002D90320BDE8F88360688003F4D50020B6
:1008F000F8E700004038024000000E42007000405F
:100900002DE9F0470E46050065D0DFF81481D8F8D0
:100910000000F7B200F00F00B04207D288F8007074
:10092000D8F8000000F00F00B04254D128683D4CC8
:10093000810712D5400703D5206840F4E0502060BD
:100940002878000703D5206840F4604020602068C4
:10095000A96820F0F000084320602878C0072DD057
:10096000304968680839012812D0022813D00328BA
:1009700011D00968890700292DDA216821F00301C7
:1009800001432160FFF7D2FE814641F2883A0EE032
:1009900009688903EFE709688901ECE7FFF7C6FEFC
:1009A000A0EB0901514502D90320BDE8F08720687A
:1009B000696800F00C00B0EB810FEFD1D8F800109F
:1009C000404601F00F01B14207D90770006800F0FE
:1009D0000F00B04201D00120E7E72878400705D595
:1009E0002068E96820F4E050084320602878000778
:1009F00006D52068296920F4604040EAC1002060E3
:100A000000F01CF82168084AC1F30311515CC8408A
:100A1000064908600020FFF7B1FE0020C5E700008E
:100A2000003C0240083802400C1F00080C00002067
:100A300001480068704700000C000020154810B500
:100A4000006810F00C02144813D04110042A0FD093
:100A5000082A0ED10F4C241F2268236802F03F029F
:100A60005B0207D52068C0F38810A0FB010106E0F7
:100A7000084610BD2168C1F38811A1FB00010023C5
:100A8000FFF7B0FB2168C1F30141491C4900B0FBED
:100A9000F1F010BD083802400024F4002DE9F84FB1
:100AA000050076D02878DFF8F8B2BE4CC00749D0F0
:100AB000DBF800105846C1F38101012908D0006815
:100AC000C0F3810002280AD1201D0068400206D52B
:100AD0002068800336D568680028E2D032E0686874
:100AE000B0F5803F10D0B0F5A02F206810D020F4D2
:100AF00080302060206820F4802020606868A0B1E9
:100B0000FFF714FE06460CE0206840F48030F4E75E
:100B100040F480202060F7E7FFF708FE801B642880
:100B200073D820688003F7D50CE0FFF7FFFD064679
:100B300005E000BFFFF7FAFD801B6428F0D82068AD
:100B40008003F7D42878DFF8608280074FF000092F
:100B50003ED5DBF80010584611F00C0F09D00068A4
:100B6000C0F3810002280BD18D48001F00684002AD
:100B700006D42068800715D5E868012809D111E05E
:100B8000E868B8B10120C8F80000FFF7CFFD0646BD
:100B900005E002E1FFF7CAFD801B0228C0D82068EB
:100BA0008007F7D52068296920F0F80040EAC100E5
:100BB00020600DE0C8F80090FFF7B8FD064604E09D
:100BC000FFF7B4FD801B02281FD820688007F7D4E8
:100BD0002878000722D5724E744869696C3671B165
:100BE00001210160FFF7A2FD074604E0FFF79EFD2B
:100BF000C01B022809D830688007F7D50EE0C0F87E
:100C00000090FFF793FD074605E083E0FFF78EFDB8
:100C1000C01B02287ED830688007F7D428784007A8
:100C200068D5DFF87CA100270AF1380ADAF800005D
:100C3000C0000BD4DAF8001041F08051CAF800105F
:100C4000DAF80000012700F080500090584E30681C
:100C5000C00510D4306840F480703060FFF766FD46
:100C6000009005E0FFF762FD0099401A022851D874
:100C70003068C005F6D54A4EA868683601280FD0FE
:100C80000528306810D020F001003060306820F076
:100C900004003060A868B8B1FFF748FD00900FE08D
:100CA000306840F00100F4E740F004003060F7E7FE
:100CB000FFF73CFD0099411A41F28830814264D827
:100CC00030688007F4D50EE0FFF730FD009007E0B4
:100CD000FFF72CFD0099411A41F28830814254D827
:100CE00030688007F4D42FB1DAF8001021F0805179
:100CF000CAF80010A869C0B3DBF80010C1F3810185
:100D000002294AD00228484607D0C8F86000FFF7F9
:100D10000DFD00E039E005463AE04746C8F86000BE
:100D2000FFF704FD064604E0FFF700FD801B0228E4
:100D30002BD820688001F7D4D5E907010843A96AB8
:100D40001C4A490802EB01416A6A41EA82110843E0
:100D500095F82C1040EA01611148001F0160012044
:100D60003866FFF7E3FC054605E014E0FFF7DEFC1C
:100D7000401B022809D820688001F7D50BE000BF8E
:100D8000FFF7D4FC401B022802D90320BDE8F88FEE
:100D900020688001F4D40020F8E70120F6E7000085
:100DA000083802400038024000004742800E4742A7
:100DB000007000400000FFFF70B5040004D094F8FC
:100DC0005100002510B106E0012070BD84F850509C
:100DD000204600F037F8022084F8510020680168AE
:100DE00021F040010160D4E901010843D4E9031274
:100DF0001143084361690843218B01F400710843E2
:100E0000E1690843216A0843A16A08432168086030
:100E1000A069042101EA1040616A08432168486022
:100E2000A06AB0F5005F02D12168E06A086120681D
:100E3000C16921F40061C1616565012084F8510038
:100E4000002070BDF0B5274A01680024264802251D
:100E50000326052787B091420DD1016841F48051E6
:100E600001600068694600F480500590F020CDE9EB
:100E700000051E481CE01E4A914220D11A48001F5E
:100E8000016841F480410160006802AA00F48040DA
:100E900005900C20CDE9000582E8D0006946154890
:100EA000FFF758FB4FF4A050CDE900051248694602
:100EB00002AA82E8D000FFF74DFB07B0F0BD0F4A51
:100EC0009142FAD1016841F48011016000686946DD
:100ED00000F4801005904FF47070CDE900050848CB
:100EE000E6E70000003001404438024000000240C4
:100EF0000038004000080240000402400050014059
:100F0000001402402DE9F84F044600200A9F9A463B
:100F100093460D46ADF80000064694F850004FF099
:100F2000010901280ED0012084F85000FFF7FEFBD4
:100F3000804694F85100616801280CD0B1F5827F99
:100F400007D102E00220BDE8F88FA16809B90428A2
:100F500001D0022605E155B1BBF1000F07D0BAF16F
:100F6000000F04D094F85100012802D004E00126BB
:100F7000F7E0052084F8510000206065C4F838B01F
:100F8000A4F83EA0A4F83CA02563A4F836A0A4F8D9
:100F900034A020646064A06A4FF4005A50450AD11E
:100FA000206801684DF6FF721140016020680168F9
:100FB00041F40051016020680168490603D40168CA
:100FC00041F040010160E068B0F5006F606804D056
:100FD000F0B3E08E012847D07FE010B1E08E012809
:100FE0003BD1216835F8020BC860E08E401EE086D8
:100FF00033E000BFB9F1000F17D0E08EA8B1206830
:101000008168890711D535F8021BC160E08E401E4A
:10101000E086E08E4FF0000938B9A06A504504D14F
:101020002068016841F480510160E08F58B1206868
:101030008168C90707D0C0682BF8020BE08F401EFB
:10104000E0874FF00109781C07D0FFF76FFB00E045
:101050000AE0A0EB0800B84271D2E08E0028C9D1A6
:10106000E08F0028C6D13EE0216815F8010B087317
:10107000E08E401EE08630E0B9F1000F17D0E08E20
:10108000A8B120688168890711D515F8011B017383
:10109000E08E401EE086E08E4FF0000938B9A06A6D
:1010A000504504D12068016841F480510160E08F0F
:1010B00058B120688168C90707D0C0680BF8010BD8
:1010C000E08F401EE0874FF00109781C05D0FFF744
:1010D0002DFBA0EB0800B84231D2E08E0028CBD126
:1010E000E08F0028C8D1A06A504513D101223B46A9
:1010F00011462046CDF8008000F0FBFC20B1606D69
:1011000040F0020060651AE02068C068ADF8000099
:10111000BDF8000020688168C90607D5616D41F0FF
:10112000020161654FF6EF71816001263B460122A5
:1011300002212046CDF8008000F0DBFC08B1032638
:101140000FE042463946204600F0C3FC18B10126A4
:101150002020606505E0A06818B92068C168806833
:101160000090012084F85100002084F8500030469F
:10117000E9E64FF0E0210428086903D020F00400DC
:101180000861704740F00400FAE7704710B5401E50
:10119000B0F1807F01D3012010BD4FF0E0246061E9
:1011A0000F21601700F084FC0020A061072020615F
:1011B000002010BD10B5FFF7E8FF10BD7047704765
:1011C00030B590F83820012A20D0012280F838204C
:1011D000022380F8393003685C6824F070045C6096
:1011E00003685C680D682C435C6003689C6824F0AD
:1011F00080049C6003689C6849680C439C6080F88C
:101200003920002180F83810084630BD022030BD5A
:1012100010B5040003D094F8390010B107E00120A4
:1012200010BD002084F83800204600F00DF80220A0
:1012300084F83900211D206800F092FD012084F817
:101240003900002010BD000008B50068114988422F
:1012500009D11148016841F001010160006800F006
:101260000100009008BD0D498842FBD10A48001FCB
:10127000016841F0020101600068002200F00200F4
:10128000009011461D20FFF7D1FABDE808401D204F
:10129000FFF7C0BA0000014044380240000400409B
:1012A0000168CA6842F00102CA600068016841F042
:1012B000010101600020704770B5044690F83800C5
:1012C000012817D0012584F83850022084F839000D
:1012D0002068826822F0770222F47F4282600868E8
:1012E000502837D00DDC202859D005DC88B31028D1
:1012F00041D151E0022070BD302853D040283AD16E
:101300003FE060282ED070280BD0B0F5805F03D06E
:10131000B0F5005F2FD110E02068816821F007014F
:1013200015E0CB68D1E90121206800F079FD216842
:10133000886840F0770088601DE0CB68D1E9012122
:10134000206800F06DFD2068816841F48041816073
:1013500011E01EE0CA684968206800F073FD502162
:10136000206806E0CA684968206800F07CFD6021BA
:10137000206800F05FFD84F83950002084F83800C0
:1013800070BDCA684968206800F05CFD4021206893
:10139000EFE700212068ECE710212068E9E7202131
:1013A0002068E6E730212068E3E72DE9F0410D46AB
:1013B000040003D094F8390018B108E00120BDE81A
:1013C000F081002084F83800204600F039F802202F
:1013D00084F839002068816821F007018160211DAF
:1013E000206800F0BDFC226890689169166A2B683D
:1013F000AF69034340F20330814341EA0721A86803
:10140000EF6908434FF6FC418843E96840EA07204A
:10141000014328692F6A000140EA073008436968E0
:101420006D6926F0AA0646EA0515294393602268ED
:10143000906120680162012084F839000020BEE735
:1014400070B5026800261D49022501241C4886B09B
:10145000B2F1804F16D01B4B9A4211D10A6842F06C
:1014600008020A600968CDE9024601F00801059109
:101470000321CDE900156946049500BFFFF76AF81E
:1014800006B070BD0A6842F001020A60096801F006
:10149000010105914FF400410091CDE90154CDE9DE
:1014A00003646946FFF756F808200090CDE901541F
:1014B000CDE9036469460448E0E700004038024093
:1014C00000000240000C004000040240704770B56C
:1014D0000446006801694FF00005C943890715D427
:1014E000C168C943890711D4E91E01610120207632
:1014F000206880698007204602D0FFF7E7FF04E0FC
:1015000000F098F8204600F096F8257620680169EA
:10151000C943490717D4C168C943490713D46FF0B9
:1015200004010161022020762068806910F4407F68
:10153000204602D0FFF7CAFF04E000F07BF8204607
:1015400000F079F8257620680169C943090716D4A7
:10155000C168C943090712D46FF008010161042072
:1015600020762068C0698007204602D0FFF7AEFFD2
:1015700004E000F05FF8204600F05DF82576206872
:101580000169C943C90617D4C168C943C90613D440
:101590006FF010010161082020762068C06910F406
:1015A000407F204602D0FFF791FF04E000F042F8B0
:1015B000204600F040F8257620680169C943C90734
:1015C00008D1C168C943C90704D1891E01612046F9
:1015D00000F032F820680169C943090609D4C168DE
:1015E000C943090605D46FF0800101612046FFF769
:1015F000E5FD20680169C943490609D4C168C943AA
:10160000490605D46FF040010161204600F020F842
:1016100020680169C94389060BD4C168C94389069A
:1016200007D46FF0200101612046BDE87040FFF74C
:10163000C6BD70BD704770470349884202D1034858
:1016400000F0E0BA70470000F80100202000002000
:101650007047FEE7084910B5064808600846FEF7DF
:101660002EFF002805D0BDE81040382103A000F06F
:101670000DBC10BD00300240040000202E2E2F5360
:1016800072632F6372632E63000000002DE9F04344
:101690004E4887B00026016841F0200101600168D2
:1016A00001F020010591016841F0800101600168AD
:1016B00001F080010591016841F0040101600168B9
:1016C00001F004010591016841F001010160016828
:1016D00001F001010591016841F01001016001680C
:1016E00001F010010591016841F0020101600168FB
:1016F00001F002010591016841F0080101600168F3
:1017000001F008010591016841F0400101600068A5
:10171000DFF8BC8000F04000059000222021404608
:10172000FEF7FEFF012240214046FEF7F9FFDFF8F9
:10173000A490002240214846FEF7F2FF264D4FF4C8
:101740008060CDE900050124694602942348FEF734
:1017500001FF8020CDE90005694602942048FEF78C
:10176000F9FEE003CDE90005694602944046FEF724
:10177000F1FE1020CDE90005694602941948FEF7F4
:10178000E9FE202002258DE8710069464046FEF7FB
:10179000E1FE4027CDE90074CDE9024669464046A6
:1017A000FEF7D8FE0320CDE90250CDE9007469466A
:1017B0004846FEF7CFFE002201212820FFF736F829
:1017C0002820FFF727F807B0BDE8F0833038024043
:1017D000000C0240000402400000211000140240EE
:1017E00000100240001802400E4810B50C4901607C
:1017F000002141608160C1600161416181610162DC
:10180000416281620A21C162FFF7D6FA002805D041
:10181000BDE81040462104A000F038BB10BD000018
:1018200000300140780000202E2E2F5372632F735A
:1018300070692E63000000000E4810B50C4901606D
:10184000002141608160C16001614161816101628B
:10185000416281620A21C162FFF7AEFA002805D019
:10186000BDE810405B2104A000F010BB10BD0000DB
:1018700000380040D00000202E2E2F5372632F73AB
:1018800070692E63000000000F4810B50D4901601B
:101890000021416081600122C160C0E904128161C0
:1018A00001624162510381620A21C162FFF784FA39
:1018B000002805D0BDE81040702104A000F0E6BA71
:1018C00010BD000000500140280100202E2E2F5393
:1018D00072632F7370692E630000000010B5174803
:1018E00086B015490160B3210024C0E9011401212B
:1018F000C0E903144461FFF78BFC18B1442110A028
:1019000000F0C4FA4FF48050009069460B48FFF78E
:10191000D3FC18B14A210AA000F0B8FA049404A933
:1019200006480594FFF74CFC002803D0512104A081
:1019300000F0ACFA06B010BD0000014080010020AC
:101940002E2E2F5372632F74696D2E6300000000DA
:1019500010B517488CB04FF080410024C0E9001446
:10196000611EC0E9024104610320CDE900040120A9
:10197000CDE9020405210491CDE90540CDE90741F7
:1019800069460B48FFF711FD18B16B2109A000F063
:101990007DFA099409A906480A94FFF711FC00286A
:1019A00003D0722103A000F071FA0CB010BD00004A
:1019B000BC0100202E2E2F5372632F74696D2E638D
:1019C0000000000010B5174886B015490160B3212A
:1019D0000024C0E9011440F2E731C0E90314FFF725
:1019E00017FC18B1832110A000F050FA4FF480507A
:1019F000009069460B48FFF75FFC18B189210AA0E7
:101A000000F044FA049404A906480594FFF7D8FBB3
:101A1000002803D0902104A000F038FA06B010BDD1
:101A200000040040F80100202E2E2F5372632F7403
:101A3000696D2E630000000010B517488CB0154981
:101A40000024C0E90014611EC0E9024104610320C2
:101A5000CDE900040120CDE9020405210491CDE97E
:101A60000540CDE9074169460B48FFF79EFC18B1D8
:101A7000AA210AA000F00AFA099409A906480A94C2
:101A8000FFF79EFB002803D0B12104A000F0FEF96F
:101A90000CB010BD000C0040340200202E2E2F533D
:101AA00072632F74696D2E6300000000FEE77047BB
:101AB0000907090E002806DA00F00F0000F1E02007
:101AC00080F8141D704700F1E02080F80014704782
:101AD000704738B50B46009204460022802100F082
:101AE00008F8002804D0606D40F0200060650320F5
:101AF00038BD2DE9F0411D4617460E460446DDF877
:101B0000188035E0681C33D02DB1FEF70FFEA0EB36
:101B10000800A8422CD32068416821F0E001416010
:101B20006068B0F5827F0BD1A068B0F5004F02D09D
:101B3000B0F5806F04D12068016821F04001016098
:101B4000A06AB0F5005F0AD1206801684DF6FF7207
:101B5000114001602068016841F4005101600120DA
:101B600084F85100002084F850000320BDE8F08183
:101B70002068806836EA000004D00020B842C1D155
:101B80000020F3E70120F9E77047000010B5044694
:101B90002DED028B00F12801B0F844201848FEF723
:101BA0006FFCB4F8441004EB8101896A8842E06C50
:101BB00000F10100E06403D10020BDEC028B10BDF8
:101BC000A06C401CA064E06CB0F57A7F16DDE06C80
:101BD000FEF7A8FB41EC180BE06CA16C401A6421E5
:101BE0004843FEF79FFB53EC182BFEF72CFB41EC10
:101BF000100B002084ED140BA064E0640120DCE7EE
:101C00000400002010B50446B0F8442000F10C0197
:101C10000448FEF735FCB4F8441004EB8101C860B9
:101C200010BD00000400002038B502210091B0F87A
:101C3000441004688900091D8BB200F1280200F1EC
:101C40000C012046FFF75EF938BD10B5FEF774FDB4
:101C5000BDE81040FFF7AEBA30B5274893B0002575
:101C6000016841F080510160006800F080501190DF
:101C70002248016841F4404101600068022400F4F8
:101C8000404011900120039010200490009406948D
:101C90000820CDE90750B420CDE9090404200B90B9
:101CA0006846FEF7FBFE00B1FEE7FEF7F1FD00B16E
:101CB000FEE70CA90F2081E831004FF4A0500F90EF
:101CC0004FF48050109005210CA8FEF719FE00B1CA
:101CD000FEE7FEF7ADFE4FF47A71B0FBF1F0FFF7CF
:101CE00055FA0420FFF745FA00221146501EFEF770
:101CF0009DFD13B030BD0000403802400070004030
:101D00001048016841F4700101600F48016841F01A
:101D1000010101600C4A00210832116002680B4B7E
:101D20001A400260031D0A4A1A60026822F48022E7
:101D3000026005480C30016002495806803908608D
:101D40007047000088ED00E000380240FFFFF6FE1B
:101D5000103000240148FFF7BABB0000F801002052
:101D6000F0B50268234B244D244E254F254C4FF0EF
:101D7000804C984209D0604507D0A84205D0B042B7
:101D800003D0B84201D0A04204D122F0700E4A68BC
:101D900042EA0E0298421BD0604519D0A84217D0E3
:101DA000B04215D0B84213D0A04211D0164DA8426F
:101DB0000ED0164DA8420BD0154DA84208D0154D97
:101DC000A84205D0144DA84202D0144DA84203D118
:101DD00022F44075CA682A4302608A68C2620A68AF
:101DE0008262984201D0A04201D1096901630121B8
:101DF0004161F0BD000001400004004000080040C7
:101E0000000C00400004014000400140004401403B
:101E10000048014000180040001C00400020004025
:101E200010B5846842EA032224F47F440A43224323
:101E3000826010BD826822F070020A4342F00701FE
:101E40008160704710B5036A046A24F001040462DB
:101E5000846924F0F00444EA021423F00A020A43DD
:101E60008461026210BD10B5036A23F0100303629F
:101E70008369046A23F4704343EA023224F0A00326
:101E800043EA01118261016210BDFEE7FEE702E054
:101E900008C8121F08C1002AFAD1704770470020F5
:101EA00001E001C1121F002AFBD17047FEF74CFC74
:101EB000FFF7D2FEFFF7EAFBFFF7CCFBFFF748FD89
:101EC000FFF7BAFDFFF7B8FCFFF708FDFFF78CFC42
:101ED000FFF778FDFFF7D8FC0348FFF7E1F9034867
:101EE00000F006F8FEE70000F801002020000020C6
:101EF0000449016004494160091501810621A0F8E7
:101F00004410704728010020001402400000000027
:101F10000000000001020304060708093C1F000836
:101F2000000000201C0000008E1E0008581F000842
:101F30001C000020540600009E1E00080000000047
:101F400000000000000000000024F4000100000078
:081F5000100000000000000079
:04000005080001AD41
:00000001FF
